{
  "contractName": "Federation",
  "abi": [
    {
      "inputs": [],
      "stateMutability": "nonpayable",
      "type": "constructor"
    },
    {
      "anonymous": false,
      "inputs": [
        {
          "indexed": true,
          "internalType": "address",
          "name": "clientAddress",
          "type": "address"
        }
      ],
      "name": "ClientAuthorized",
      "type": "event"
    },
    {
      "anonymous": false,
      "inputs": [
        {
          "indexed": true,
          "internalType": "address",
          "name": "clientAddress",
          "type": "address"
        }
      ],
      "name": "ClientDeauthorized",
      "type": "event"
    },
    {
      "anonymous": false,
      "inputs": [
        {
          "indexed": true,
          "internalType": "address",
          "name": "from",
          "type": "address"
        },
        {
          "indexed": false,
          "internalType": "uint128",
          "name": "amount",
          "type": "uint128"
        }
      ],
      "name": "ContractFunded",
      "type": "event"
    },
    {
      "anonymous": false,
      "inputs": [
        {
          "indexed": true,
          "internalType": "address",
          "name": "clientAddress",
          "type": "address"
        },
        {
          "indexed": false,
          "internalType": "uint32",
          "name": "round",
          "type": "uint32"
        },
        {
          "indexed": false,
          "internalType": "uint32",
          "name": "score",
          "type": "uint32"
        }
      ],
      "name": "ContributionRecorded",
      "type": "event"
    },
    {
      "anonymous": false,
      "inputs": [
        {
          "indexed": true,
          "internalType": "address",
          "name": "to",
          "type": "address"
        },
        {
          "indexed": false,
          "internalType": "uint128",
          "name": "amount",
          "type": "uint128"
        }
      ],
      "name": "EmergencyWithdrawal",
      "type": "event"
    },
    {
      "anonymous": false,
      "inputs": [
        {
          "indexed": true,
          "internalType": "bytes32",
          "name": "modelId",
          "type": "bytes32"
        }
      ],
      "name": "ModelDeactivated",
      "type": "event"
    },
    {
      "anonymous": false,
      "inputs": [
        {
          "indexed": true,
          "internalType": "bytes32",
          "name": "modelId",
          "type": "bytes32"
        },
        {
          "indexed": false,
          "internalType": "string",
          "name": "ipfsHash",
          "type": "string"
        },
        {
          "indexed": false,
          "internalType": "uint32",
          "name": "round",
          "type": "uint32"
        },
        {
          "indexed": false,
          "internalType": "string",
          "name": "version",
          "type": "string"
        }
      ],
      "name": "ModelRegistered",
      "type": "event"
    },
    {
      "anonymous": false,
      "inputs": [
        {
          "indexed": true,
          "internalType": "bytes32",
          "name": "modelId",
          "type": "bytes32"
        },
        {
          "indexed": false,
          "internalType": "string",
          "name": "ipfsHash",
          "type": "string"
        },
        {
          "indexed": false,
          "internalType": "uint32",
          "name": "round",
          "type": "uint32"
        },
        {
          "indexed": false,
          "internalType": "string",
          "name": "version",
          "type": "string"
        }
      ],
      "name": "ModelUpdated",
      "type": "event"
    },
    {
      "anonymous": false,
      "inputs": [
        {
          "indexed": true,
          "internalType": "address",
          "name": "clientAddress",
          "type": "address"
        },
        {
          "indexed": false,
          "internalType": "uint128",
          "name": "amount",
          "type": "uint128"
        },
        {
          "indexed": false,
          "internalType": "uint32",
          "name": "round",
          "type": "uint32"
        }
      ],
      "name": "RewardAllocated",
      "type": "event"
    },
    {
      "anonymous": false,
      "inputs": [
        {
          "indexed": true,
          "internalType": "address",
          "name": "clientAddress",
          "type": "address"
        },
        {
          "indexed": false,
          "internalType": "uint128",
          "name": "amount",
          "type": "uint128"
        }
      ],
      "name": "RewardClaimed",
      "type": "event"
    },
    {
      "anonymous": false,
      "inputs": [
        {
          "indexed": true,
          "internalType": "uint32",
          "name": "round",
          "type": "uint32"
        },
        {
          "indexed": false,
          "internalType": "uint128",
          "name": "totalAmount",
          "type": "uint128"
        }
      ],
      "name": "RewardPoolFinalized",
      "type": "event"
    },
    {
      "anonymous": false,
      "inputs": [
        {
          "indexed": true,
          "internalType": "uint32",
          "name": "round",
          "type": "uint32"
        },
        {
          "indexed": false,
          "internalType": "uint128",
          "name": "amount",
          "type": "uint128"
        }
      ],
      "name": "RewardPoolFunded",
      "type": "event"
    },
    {
      "stateMutability": "payable",
      "type": "fallback",
      "payable": true
    },
    {
      "inputs": [
        {
          "internalType": "uint256",
          "name": "",
          "type": "uint256"
        }
      ],
      "name": "allModelIds",
      "outputs": [
        {
          "internalType": "bytes32",
          "name": "",
          "type": "bytes32"
        }
      ],
      "stateMutability": "view",
      "type": "function",
      "constant": true
    },
    {
      "inputs": [
        {
          "internalType": "uint256",
          "name": "",
          "type": "uint256"
        }
      ],
      "name": "authorizedClients",
      "outputs": [
        {
          "internalType": "address",
          "name": "",
          "type": "address"
        }
      ],
      "stateMutability": "view",
      "type": "function",
      "constant": true
    },
    {
      "inputs": [
        {
          "internalType": "address",
          "name": "",
          "type": "address"
        }
      ],
      "name": "clientContributionCount",
      "outputs": [
        {
          "internalType": "uint32",
          "name": "",
          "type": "uint32"
        }
      ],
      "stateMutability": "view",
      "type": "function",
      "constant": true
    },
    {
      "inputs": [
        {
          "internalType": "address",
          "name": "",
          "type": "address"
        },
        {
          "internalType": "uint32",
          "name": "",
          "type": "uint32"
        }
      ],
      "name": "clientContributions",
      "outputs": [
        {
          "internalType": "address",
          "name": "clientAddress",
          "type": "address"
        },
        {
          "internalType": "uint32",
          "name": "round",
          "type": "uint32"
        },
        {
          "internalType": "string",
          "name": "ipfsHash",
          "type": "string"
        },
        {
          "internalType": "uint32",
          "name": "accuracy",
          "type": "uint32"
        },
        {
          "internalType": "uint64",
          "name": "timestamp",
          "type": "uint64"
        },
        {
          "internalType": "uint32",
          "name": "score",
          "type": "uint32"
        },
        {
          "internalType": "bool",
          "name": "rewarded",
          "type": "bool"
        }
      ],
      "stateMutability": "view",
      "type": "function",
      "constant": true
    },
    {
      "inputs": [
        {
          "internalType": "address",
          "name": "",
          "type": "address"
        }
      ],
      "name": "clientRegistry",
      "outputs": [
        {
          "internalType": "uint32",
          "name": "contributionCount",
          "type": "uint32"
        },
        {
          "internalType": "uint96",
          "name": "totalScore",
          "type": "uint96"
        },
        {
          "internalType": "bool",
          "name": "isAuthorized",
          "type": "bool"
        },
        {
          "internalType": "uint64",
          "name": "lastContributionTimestamp",
          "type": "uint64"
        },
        {
          "internalType": "uint96",
          "name": "rewardsEarned",
          "type": "uint96"
        },
        {
          "internalType": "bool",
          "name": "rewardsClaimed",
          "type": "bool"
        }
      ],
      "stateMutability": "view",
      "type": "function",
      "constant": true
    },
    {
      "inputs": [],
      "name": "contractBalance",
      "outputs": [
        {
          "internalType": "uint128",
          "name": "",
          "type": "uint128"
        }
      ],
      "stateMutability": "view",
      "type": "function",
      "constant": true
    },
    {
      "inputs": [
        {
          "internalType": "string",
          "name": "",
          "type": "string"
        }
      ],
      "name": "latestVersions",
      "outputs": [
        {
          "internalType": "bytes32",
          "name": "",
          "type": "bytes32"
        }
      ],
      "stateMutability": "view",
      "type": "function",
      "constant": true
    },
    {
      "inputs": [
        {
          "internalType": "bytes32",
          "name": "",
          "type": "bytes32"
        }
      ],
      "name": "models",
      "outputs": [
        {
          "internalType": "string",
          "name": "ipfsHash",
          "type": "string"
        },
        {
          "internalType": "uint32",
          "name": "round",
          "type": "uint32"
        },
        {
          "internalType": "string",
          "name": "version",
          "type": "string"
        },
        {
          "internalType": "uint64",
          "name": "timestamp",
          "type": "uint64"
        },
        {
          "internalType": "uint32",
          "name": "participatingClients",
          "type": "uint32"
        },
        {
          "internalType": "address",
          "name": "publisher",
          "type": "address"
        },
        {
          "internalType": "bool",
          "name": "isActive",
          "type": "bool"
        }
      ],
      "stateMutability": "view",
      "type": "function",
      "constant": true
    },
    {
      "inputs": [
        {
          "internalType": "uint32",
          "name": "",
          "type": "uint32"
        },
        {
          "internalType": "uint256",
          "name": "",
          "type": "uint256"
        }
      ],
      "name": "modelsByRound",
      "outputs": [
        {
          "internalType": "bytes32",
          "name": "",
          "type": "bytes32"
        }
      ],
      "stateMutability": "view",
      "type": "function",
      "constant": true
    },
    {
      "inputs": [],
      "name": "owner",
      "outputs": [
        {
          "internalType": "address",
          "name": "",
          "type": "address"
        }
      ],
      "stateMutability": "view",
      "type": "function",
      "constant": true
    },
    {
      "inputs": [
        {
          "internalType": "uint32",
          "name": "",
          "type": "uint32"
        }
      ],
      "name": "roundContributionCount",
      "outputs": [
        {
          "internalType": "uint32",
          "name": "",
          "type": "uint32"
        }
      ],
      "stateMutability": "view",
      "type": "function",
      "constant": true
    },
    {
      "inputs": [
        {
          "internalType": "uint32",
          "name": "",
          "type": "uint32"
        },
        {
          "internalType": "uint32",
          "name": "",
          "type": "uint32"
        }
      ],
      "name": "roundContributions",
      "outputs": [
        {
          "internalType": "address",
          "name": "clientAddress",
          "type": "address"
        },
        {
          "internalType": "uint32",
          "name": "round",
          "type": "uint32"
        },
        {
          "internalType": "string",
          "name": "ipfsHash",
          "type": "string"
        },
        {
          "internalType": "uint32",
          "name": "accuracy",
          "type": "uint32"
        },
        {
          "internalType": "uint64",
          "name": "timestamp",
          "type": "uint64"
        },
        {
          "internalType": "uint32",
          "name": "score",
          "type": "uint32"
        },
        {
          "internalType": "bool",
          "name": "rewarded",
          "type": "bool"
        }
      ],
      "stateMutability": "view",
      "type": "function",
      "constant": true
    },
    {
      "inputs": [
        {
          "internalType": "uint32",
          "name": "",
          "type": "uint32"
        }
      ],
      "name": "roundRewardPools",
      "outputs": [
        {
          "internalType": "uint128",
          "name": "totalAmount",
          "type": "uint128"
        },
        {
          "internalType": "uint128",
          "name": "allocatedAmount",
          "type": "uint128"
        },
        {
          "internalType": "bool",
          "name": "isFinalized",
          "type": "bool"
        }
      ],
      "stateMutability": "view",
      "type": "function",
      "constant": true
    },
    {
      "inputs": [],
      "name": "totalModelCount",
      "outputs": [
        {
          "internalType": "uint256",
          "name": "",
          "type": "uint256"
        }
      ],
      "stateMutability": "view",
      "type": "function",
      "constant": true
    },
    {
      "inputs": [],
      "name": "totalRewardsAllocated",
      "outputs": [
        {
          "internalType": "uint128",
          "name": "",
          "type": "uint128"
        }
      ],
      "stateMutability": "view",
      "type": "function",
      "constant": true
    },
    {
      "inputs": [],
      "name": "totalRewardsClaimed",
      "outputs": [
        {
          "internalType": "uint128",
          "name": "",
          "type": "uint128"
        }
      ],
      "stateMutability": "view",
      "type": "function",
      "constant": true
    },
    {
      "stateMutability": "payable",
      "type": "receive",
      "payable": true
    },
    {
      "inputs": [],
      "name": "fundContract",
      "outputs": [],
      "stateMutability": "payable",
      "type": "function",
      "payable": true
    },
    {
      "inputs": [
        {
          "internalType": "uint32",
          "name": "round",
          "type": "uint32"
        }
      ],
      "name": "fundRoundRewardPool",
      "outputs": [],
      "stateMutability": "payable",
      "type": "function",
      "payable": true
    },
    {
      "inputs": [
        {
          "internalType": "uint32",
          "name": "round",
          "type": "uint32"
        }
      ],
      "name": "finalizeRoundRewardPool",
      "outputs": [],
      "stateMutability": "nonpayable",
      "type": "function"
    },
    {
      "inputs": [
        {
          "internalType": "string",
          "name": "ipfsHash",
          "type": "string"
        },
        {
          "internalType": "uint32",
          "name": "round",
          "type": "uint32"
        }
      ],
      "name": "generateModelId",
      "outputs": [
        {
          "internalType": "bytes32",
          "name": "",
          "type": "bytes32"
        }
      ],
      "stateMutability": "pure",
      "type": "function",
      "constant": true
    },
    {
      "inputs": [
        {
          "internalType": "string",
          "name": "ipfsHash",
          "type": "string"
        },
        {
          "internalType": "uint32",
          "name": "round",
          "type": "uint32"
        },
        {
          "internalType": "string",
          "name": "version",
          "type": "string"
        },
        {
          "internalType": "uint32",
          "name": "participatingClients",
          "type": "uint32"
        }
      ],
      "name": "registerModel",
      "outputs": [
        {
          "internalType": "bytes32",
          "name": "",
          "type": "bytes32"
        }
      ],
      "stateMutability": "nonpayable",
      "type": "function"
    },
    {
      "inputs": [
        {
          "internalType": "string",
          "name": "ipfsHash",
          "type": "string"
        },
        {
          "internalType": "uint32",
          "name": "round",
          "type": "uint32"
        },
        {
          "internalType": "string",
          "name": "version",
          "type": "string"
        },
        {
          "internalType": "uint32",
          "name": "participatingClients",
          "type": "uint32"
        }
      ],
      "name": "updateModelByRound",
      "outputs": [
        {
          "internalType": "bytes32",
          "name": "",
          "type": "bytes32"
        }
      ],
      "stateMutability": "nonpayable",
      "type": "function"
    },
    {
      "inputs": [
        {
          "internalType": "string",
          "name": "versionPrefix",
          "type": "string"
        }
      ],
      "name": "getLatestModel",
      "outputs": [
        {
          "internalType": "bytes32",
          "name": "modelId",
          "type": "bytes32"
        },
        {
          "internalType": "string",
          "name": "ipfsHash",
          "type": "string"
        },
        {
          "internalType": "uint32",
          "name": "round",
          "type": "uint32"
        },
        {
          "internalType": "string",
          "name": "version",
          "type": "string"
        },
        {
          "internalType": "uint64",
          "name": "timestamp",
          "type": "uint64"
        },
        {
          "internalType": "uint32",
          "name": "participatingClients",
          "type": "uint32"
        }
      ],
      "stateMutability": "view",
      "type": "function",
      "constant": true
    },
    {
      "inputs": [
        {
          "internalType": "uint32",
          "name": "round",
          "type": "uint32"
        }
      ],
      "name": "getModelsByRound",
      "outputs": [
        {
          "internalType": "bytes32[]",
          "name": "",
          "type": "bytes32[]"
        }
      ],
      "stateMutability": "view",
      "type": "function",
      "constant": true
    },
    {
      "inputs": [
        {
          "internalType": "uint32",
          "name": "round",
          "type": "uint32"
        }
      ],
      "name": "getLatestModelByRound",
      "outputs": [
        {
          "internalType": "bytes32",
          "name": "modelId",
          "type": "bytes32"
        },
        {
          "internalType": "string",
          "name": "ipfsHash",
          "type": "string"
        },
        {
          "internalType": "string",
          "name": "version",
          "type": "string"
        },
        {
          "internalType": "uint64",
          "name": "timestamp",
          "type": "uint64"
        },
        {
          "internalType": "uint32",
          "name": "participatingClients",
          "type": "uint32"
        },
        {
          "internalType": "address",
          "name": "publisher",
          "type": "address"
        },
        {
          "internalType": "bool",
          "name": "isActive",
          "type": "bool"
        }
      ],
      "stateMutability": "view",
      "type": "function",
      "constant": true
    },
    {
      "inputs": [
        {
          "internalType": "bytes32",
          "name": "modelId",
          "type": "bytes32"
        }
      ],
      "name": "getModelDetails",
      "outputs": [
        {
          "internalType": "string",
          "name": "ipfsHash",
          "type": "string"
        },
        {
          "internalType": "uint32",
          "name": "round",
          "type": "uint32"
        },
        {
          "internalType": "string",
          "name": "version",
          "type": "string"
        },
        {
          "internalType": "uint64",
          "name": "timestamp",
          "type": "uint64"
        },
        {
          "internalType": "uint32",
          "name": "participatingClients",
          "type": "uint32"
        },
        {
          "internalType": "address",
          "name": "publisher",
          "type": "address"
        },
        {
          "internalType": "bool",
          "name": "isActive",
          "type": "bool"
        }
      ],
      "stateMutability": "view",
      "type": "function",
      "constant": true
    },
    {
      "inputs": [
        {
          "internalType": "uint256",
          "name": "offset",
          "type": "uint256"
        },
        {
          "internalType": "uint256",
          "name": "limit",
          "type": "uint256"
        }
      ],
      "name": "getModels",
      "outputs": [
        {
          "internalType": "bytes32[]",
          "name": "modelIds",
          "type": "bytes32[]"
        },
        {
          "internalType": "string[]",
          "name": "ipfsHashes",
          "type": "string[]"
        },
        {
          "internalType": "uint32[]",
          "name": "rounds",
          "type": "uint32[]"
        },
        {
          "internalType": "uint64[]",
          "name": "timestamps",
          "type": "uint64[]"
        },
        {
          "internalType": "uint32[]",
          "name": "participatingClients",
          "type": "uint32[]"
        },
        {
          "internalType": "bool[]",
          "name": "isActive",
          "type": "bool[]"
        }
      ],
      "stateMutability": "view",
      "type": "function",
      "constant": true
    },
    {
      "inputs": [],
      "name": "getModelCount",
      "outputs": [
        {
          "internalType": "uint256",
          "name": "",
          "type": "uint256"
        }
      ],
      "stateMutability": "view",
      "type": "function",
      "constant": true
    },
    {
      "inputs": [],
      "name": "getAllModels",
      "outputs": [
        {
          "internalType": "bytes32[]",
          "name": "modelIds",
          "type": "bytes32[]"
        },
        {
          "internalType": "string[]",
          "name": "ipfsHashes",
          "type": "string[]"
        },
        {
          "internalType": "uint32[]",
          "name": "rounds",
          "type": "uint32[]"
        },
        {
          "internalType": "uint64[]",
          "name": "timestamps",
          "type": "uint64[]"
        },
        {
          "internalType": "uint32[]",
          "name": "participatingClients",
          "type": "uint32[]"
        },
        {
          "internalType": "bool[]",
          "name": "isActive",
          "type": "bool[]"
        }
      ],
      "stateMutability": "view",
      "type": "function",
      "constant": true
    },
    {
      "inputs": [
        {
          "internalType": "bytes32",
          "name": "modelId",
          "type": "bytes32"
        }
      ],
      "name": "deactivateModel",
      "outputs": [],
      "stateMutability": "nonpayable",
      "type": "function"
    },
    {
      "inputs": [
        {
          "internalType": "address",
          "name": "clientAddress",
          "type": "address"
        }
      ],
      "name": "authorizeClient",
      "outputs": [],
      "stateMutability": "nonpayable",
      "type": "function"
    },
    {
      "inputs": [
        {
          "internalType": "address[]",
          "name": "clientAddresses",
          "type": "address[]"
        }
      ],
      "name": "authorizeClients",
      "outputs": [],
      "stateMutability": "nonpayable",
      "type": "function"
    },
    {
      "inputs": [
        {
          "internalType": "address",
          "name": "clientAddress",
          "type": "address"
        }
      ],
      "name": "deauthorizeClient",
      "outputs": [],
      "stateMutability": "nonpayable",
      "type": "function"
    },
    {
      "inputs": [
        {
          "internalType": "address",
          "name": "clientAddress",
          "type": "address"
        }
      ],
      "name": "isClientAuthorized",
      "outputs": [
        {
          "internalType": "bool",
          "name": "",
          "type": "bool"
        }
      ],
      "stateMutability": "view",
      "type": "function",
      "constant": true
    },
    {
      "inputs": [],
      "name": "getAllAuthorizedClients",
      "outputs": [
        {
          "internalType": "address[]",
          "name": "",
          "type": "address[]"
        }
      ],
      "stateMutability": "view",
      "type": "function",
      "constant": true
    },
    {
      "inputs": [
        {
          "internalType": "address",
          "name": "clientAddress",
          "type": "address"
        },
        {
          "internalType": "uint32",
          "name": "round",
          "type": "uint32"
        },
        {
          "internalType": "string",
          "name": "ipfsHash",
          "type": "string"
        },
        {
          "internalType": "uint32",
          "name": "accuracy",
          "type": "uint32"
        }
      ],
      "name": "recordContribution",
      "outputs": [
        {
          "internalType": "uint32",
          "name": "",
          "type": "uint32"
        }
      ],
      "stateMutability": "nonpayable",
      "type": "function"
    },
    {
      "inputs": [
        {
          "internalType": "address",
          "name": "clientAddress",
          "type": "address"
        }
      ],
      "name": "getClientContribution",
      "outputs": [
        {
          "internalType": "uint32",
          "name": "contributionCount",
          "type": "uint32"
        },
        {
          "internalType": "uint96",
          "name": "totalScore",
          "type": "uint96"
        },
        {
          "internalType": "bool",
          "name": "isAuthorized",
          "type": "bool"
        },
        {
          "internalType": "uint64",
          "name": "lastContributionTimestamp",
          "type": "uint64"
        },
        {
          "internalType": "uint96",
          "name": "rewardsEarned",
          "type": "uint96"
        },
        {
          "internalType": "bool",
          "name": "rewardsClaimed",
          "type": "bool"
        }
      ],
      "stateMutability": "view",
      "type": "function",
      "constant": true
    },
    {
      "inputs": [
        {
          "internalType": "address",
          "name": "clientAddress",
          "type": "address"
        },
        {
          "internalType": "uint32",
          "name": "offset",
          "type": "uint32"
        },
        {
          "internalType": "uint32",
          "name": "limit",
          "type": "uint32"
        }
      ],
      "name": "getClientContributionRecords",
      "outputs": [
        {
          "internalType": "uint32[]",
          "name": "rounds",
          "type": "uint32[]"
        },
        {
          "internalType": "uint32[]",
          "name": "accuracies",
          "type": "uint32[]"
        },
        {
          "internalType": "uint32[]",
          "name": "scores",
          "type": "uint32[]"
        },
        {
          "internalType": "uint64[]",
          "name": "timestamps",
          "type": "uint64[]"
        },
        {
          "internalType": "bool[]",
          "name": "rewarded",
          "type": "bool[]"
        }
      ],
      "stateMutability": "view",
      "type": "function",
      "constant": true
    },
    {
      "inputs": [
        {
          "internalType": "uint32",
          "name": "round",
          "type": "uint32"
        },
        {
          "internalType": "uint32",
          "name": "offset",
          "type": "uint32"
        },
        {
          "internalType": "uint32",
          "name": "limit",
          "type": "uint32"
        }
      ],
      "name": "getRoundContributions",
      "outputs": [
        {
          "internalType": "address[]",
          "name": "clients",
          "type": "address[]"
        },
        {
          "internalType": "uint32[]",
          "name": "accuracies",
          "type": "uint32[]"
        },
        {
          "internalType": "uint32[]",
          "name": "scores",
          "type": "uint32[]"
        },
        {
          "internalType": "bool[]",
          "name": "rewarded",
          "type": "bool[]"
        }
      ],
      "stateMutability": "view",
      "type": "function",
      "constant": true
    },
    {
      "inputs": [
        {
          "internalType": "uint32",
          "name": "round",
          "type": "uint32"
        }
      ],
      "name": "allocateRewardsForRound",
      "outputs": [],
      "stateMutability": "nonpayable",
      "type": "function"
    },
    {
      "inputs": [],
      "name": "claimRewards",
      "outputs": [],
      "stateMutability": "nonpayable",
      "type": "function"
    },
    {
      "inputs": [
        {
          "internalType": "address",
          "name": "clientAddress",
          "type": "address"
        }
      ],
      "name": "getAvailableRewards",
      "outputs": [
        {
          "internalType": "uint96",
          "name": "",
          "type": "uint96"
        }
      ],
      "stateMutability": "view",
      "type": "function",
      "constant": true
    },
    {
      "inputs": [
        {
          "internalType": "uint128",
          "name": "amount",
          "type": "uint128"
        }
      ],
      "name": "emergencyWithdraw",
      "outputs": [],
      "stateMutability": "nonpayable",
      "type": "function"
    },
    {
      "inputs": [
        {
          "internalType": "uint32",
          "name": "round",
          "type": "uint32"
        }
      ],
      "name": "getRoundRewardPool",
      "outputs": [
        {
          "internalType": "uint128",
          "name": "totalAmount",
          "type": "uint128"
        },
        {
          "internalType": "uint128",
          "name": "allocatedAmount",
          "type": "uint128"
        },
        {
          "internalType": "uint128",
          "name": "remainingAmount",
          "type": "uint128"
        },
        {
          "internalType": "bool",
          "name": "isFinalized",
          "type": "bool"
        }
      ],
      "stateMutability": "view",
      "type": "function",
      "constant": true
    },
    {
      "inputs": [
        {
          "internalType": "address",
          "name": "newOwner",
          "type": "address"
        }
      ],
      "name": "transferOwnership",
      "outputs": [],
      "stateMutability": "nonpayable",
      "type": "function"
    },
    {
      "inputs": [],
      "name": "getAuthorizedClientCount",
      "outputs": [
        {
          "internalType": "uint256",
          "name": "",
          "type": "uint256"
        }
      ],
      "stateMutability": "view",
      "type": "function",
      "constant": true
    }
  ],
  "bytecode": "0x608060405234801561001057600080fd5b50600e80546001600160a01b031916331790556157de80620000336000396000f3fe6080604052600436106102815760003560e01c806391b92c071161014f578063c757f000116100c1578063dafb4fd91161007a578063dafb4fd914610894578063e236f46b146108b4578063e70611ac146108e7578063efaf4be514610918578063f2fde38b14610938578063fd521035146109585761030b565b8063c757f00014610792578063c7804137146107c5578063cb8f9be3146107e5578063ce38b4e314610815578063d8968f4c14610835578063d9cf4bb9146108625761030b565b8063a9a5cb3a11610113578063a9a5cb3a146106f5578063aa9bf1d41461070a578063ac213fd61461072a578063b16aef4d1461074a578063b6a45d621461076a578063bd097e211461078a5761030b565b806391b92c071461063e5780639b4e1b2f146106715780639cff4c6914610691578063a34b0f76146106c0578063a8210cd6146106d55761030b565b80634989dbb0116101f35780636ebe4e28116101ac5780636ebe4e28146105925780637b221028146105b257806382dcd7f5146105c7578063873e31fa146105e75780638b7afe2e146106145780638da5cb5b146106295761030b565b80634989dbb0146104ce5780634f057af0146104e3578063526a8410146105055780635ee08f1d146105255780636607be6f146105385780636c572793146105655761030b565b80632d16b35f116102455780632d16b35f146104005780632f4abc1c14610430578063372500ab14610462578063391085151461047757806341744f7b14610497578063457942f1146104b95761030b565b80630340ee4e14610329578063047af67f1461035f57806307d0fa29146103815780631792342f146103ae5780632514f018146103ce5761030b565b3661030b57600d80543491906000906102a49084906001600160801b0316615586565b92506101000a8154816001600160801b0302191690836001600160801b03160217905550336001600160a01b03167f1b57d3bd3d546a50dc12b93588d730345097da93682e787dd733da67727d2168346040516103019190615480565b60405180910390a2005b600d80543491906000906102a49084906001600160801b0316615586565b34801561033557600080fd5b506103496103443660046149dd565b610978565b6040516103569190614fb5565b60405180910390f35b34801561036b57600080fd5b5061037f61037a36600461493e565b610dac565b005b34801561038d57600080fd5b506103a161039c36600461493e565b610e81565b6040516103569190614d88565b3480156103ba57600080fd5b506103496103c9366004614b6e565b610eab565b3480156103da57600080fd5b506103ee6103e93660046147c8565b610edc565b60405161035696959493929190615529565b34801561040c57600080fd5b5061042061041b366004614b54565b610f46565b60405161035694939291906154b8565b34801561043c57600080fd5b5061045061044b366004614b33565b610f9b565b60405161035696959493929190614e7b565b34801561046e57600080fd5b5061037f611452565b34801561048357600080fd5b50610349610492366004614995565b611685565b3480156104a357600080fd5b506104ac6116bb565b6040516103569190615480565b3480156104c557600080fd5b506103496116ca565b3480156104da57600080fd5b506103496116d0565b3480156104ef57600080fd5b506104f86116d6565b6040516103569190614dfd565b34801561051157600080fd5b506103496105203660046149dd565b611738565b61037f610533366004614b54565b611a9a565b34801561054457600080fd5b5061055861055336600461481b565b611bc4565b6040516103569190615501565b34801561057157600080fd5b506105856105803660046147c8565b61210c565b6040516103569190614faa565b34801561059e57600080fd5b5061037f6105ad3660046148d0565b612135565b3480156105be57600080fd5b506103496121b9565b3480156105d357600080fd5b506103ee6105e23660046147c8565b6121bf565b3480156105f357600080fd5b506106076106023660046147c8565b61221c565b6040516103569190615572565b34801561062057600080fd5b506104ac612279565b34801561063557600080fd5b506103a1612288565b34801561064a57600080fd5b5061065e610659366004614b97565b612297565b6040516103569796959493929190614d9c565b34801561067d57600080fd5b5061037f61068c366004614b54565b612395565b34801561069d57600080fd5b506106b16106ac366004614b54565b61250d565b60405161035693929190615494565b3480156106cc57600080fd5b506104ac61253e565b3480156106e157600080fd5b506105586106f0366004614b54565b612554565b34801561070157600080fd5b5061045061256c565b34801561071657600080fd5b5061037f6107253660046147c8565b612af6565b34801561073657600080fd5b5061034961074536600461493e565b612bfa565b34801561075657600080fd5b506105586107653660046147c8565b612c1b565b34801561077657600080fd5b50610349610785366004614a6c565b612c33565b61037f612c50565b34801561079e57600080fd5b506107b26107ad366004614b54565b612cd5565b6040516103569796959493929190614fbe565b3480156107d157600080fd5b5061037f6107e0366004614b54565b612eed565b3480156107f157600080fd5b50610805610800366004614bb2565b612fca565b6040516103569493929190614e10565b34801561082157600080fd5b5061037f6108303660046147c8565b613322565b34801561084157600080fd5b50610855610850366004614b54565b613525565b6040516103569190614e68565b34801561086e57600080fd5b5061088261087d366004614956565b61358e565b6040516103569695949392919061502a565b3480156108a057600080fd5b5061037f6108af366004614b0c565b61374b565b3480156108c057600080fd5b506108d46108cf36600461493e565b6138bf565b60405161035697969594939291906150bb565b3480156108f357600080fd5b5061090761090236600461488e565b613a36565b604051610356959493929190614f3d565b34801561092457600080fd5b506108d461093336600461493e565b613e53565b34801561094457600080fd5b5061037f6109533660046147c8565b614019565b34801561096457600080fd5b5061065e6109733660046147e9565b61408b565b600e546000906001600160a01b031633146109ae5760405162461bcd60e51b81526004016109a5906153bc565b60405180910390fd5b63ffffffff85166000908152600160205260409020546109e05760405162461bcd60e51b81526004016109a59061538f565b60006109ed888888611685565b6000818152602081905260409020600301549091506001600160401b031615610a17579050610da2565b6040518060e0016040528089898080601f01602080910402602001604051908101604052809392919081815260200183838082843760009201919091525050509082525063ffffffff881660208083019190915260408051601f8901839004830281018301825288815292019190889088908190840183828082843760009201829052509385525050506001600160401b03421660208084019190915263ffffffff87166040808501919091523360608501526001608090940193909352848252818152919020825180519192610af3928492909101906146c5565b5060208281015160018301805463ffffffff191663ffffffff90921691909117905560408301518051610b2c92600285019201906146c5565b506060820151600382018054608085015160a086015167ffffffffffffffff199092166001600160401b039094169390931763ffffffff60401b1916600160401b63ffffffff94851602176001600160601b0316600160601b6001600160a01b039092169190910217905560c0909201516004909101805460ff1916911515919091179055861660009081526001602081815260408084208054938401815584528184209092018490558151601f8801829004820281018201909252868252610c10919088908890819084018382808284376000920191909152506140d192505050565b90506000801b600282604051610c269190614d69565b9081526020016040518091039020541480610d375750610d3786868080601f016020809104026020016040519081016040528093929190818152602001838380828437600092018290525060405190935083925060029150610c89908790614d69565b90815260200160405180910390205481526020019081526020016000206002018054610cb4906156ec565b80601f0160208091040260200160405190810160405280929190818152602001828054610ce0906156ec565b8015610d2d5780601f10610d0257610100808354040283529160200191610d2d565b820191906000526020600020905b815481529060010190602001808311610d1057829003601f168201915b5050505050614240565b15610d5e5781600282604051610d4d9190614d69565b908152604051908190036020019020555b817fd37c5c8d0dbc417d21cdb8d54e966df6bb2de3e593278bbe4319b8919b186c298a8a8a8a8a604051610d96959493929190615088565b60405180910390a25090505b9695505050505050565b600e546001600160a01b03163314610dd65760405162461bcd60e51b81526004016109a5906153bc565b6000818152602081905260409020600301546001600160401b0316610e0d5760405162461bcd60e51b81526004016109a59061530e565b60008181526020819052604090206004015460ff16610e3e5760405162461bcd60e51b81526004016109a590615290565b600081815260208190526040808220600401805460ff191690555182917f77731f8c28ec1f1515adfd0a49782a0c50fa7dd8f930387223709879f318505e91a250565b60068181548110610e9157600080fd5b6000918252602090912001546001600160a01b0316905081565b60016020528160005260406000208181548110610ec757600080fd5b90600052602060002001600091509150505481565b6001600160a01b03166000908152600560205260409020805460019091015463ffffffff82169264010000000083046001600160601b0390811693600160801b810460ff90811694600160881b9092046001600160401b03169392821692600160601b9092041690565b63ffffffff81166000908152600b602052604081208054829182918291906001600160801b0380821691600160801b900416610f828183615660565b60019390930154919890975091955060ff169350915050565b6060806060806060806000600354891015610fdb57600354610fbd898b6155b1565b11610fc85787610fd6565b88600354610fd69190615688565b610fde565b60005b9050806001600160401b0381111561100657634e487b7160e01b600052604160045260246000fd5b60405190808252806020026020018201604052801561102f578160200160208202803683370190505b509650806001600160401b0381111561105857634e487b7160e01b600052604160045260246000fd5b60405190808252806020026020018201604052801561108b57816020015b60608152602001906001900390816110765790505b509550806001600160401b038111156110b457634e487b7160e01b600052604160045260246000fd5b6040519080825280602002602001820160405280156110dd578160200160208202803683370190505b509450806001600160401b0381111561110657634e487b7160e01b600052604160045260246000fd5b60405190808252806020026020018201604052801561112f578160200160208202803683370190505b509350806001600160401b0381111561115857634e487b7160e01b600052604160045260246000fd5b604051908082528060200260200182016040528015611181578160200160208202803683370190505b509250806001600160401b038111156111aa57634e487b7160e01b600052604160045260246000fd5b6040519080825280602002602001820160405280156111d3578160200160208202803683370190505b50915060005b8181101561144657600060046111ef838d6155b1565b8154811061120d57634e487b7160e01b600052603260045260246000fd5b9060005260206000200154905060008060008381526020019081526020016000209050818a848151811061125157634e487b7160e01b600052603260045260246000fd5b602090810291909101015280548190611269906156ec565b80601f0160208091040260200160405190810160405280929190818152602001828054611295906156ec565b80156112e25780601f106112b7576101008083540402835291602001916112e2565b820191906000526020600020905b8154815290600101906020018083116112c557829003601f168201915b505050505089848151811061130757634e487b7160e01b600052603260045260246000fd5b60209081029190910101526001810154885163ffffffff9091169089908590811061134257634e487b7160e01b600052603260045260246000fd5b63ffffffff90921660209283029190910190910152600381015487516001600160401b039091169088908590811061138a57634e487b7160e01b600052603260045260246000fd5b60200260200101906001600160401b031690816001600160401b0316815250508060030160089054906101000a900463ffffffff168684815181106113df57634e487b7160e01b600052603260045260246000fd5b63ffffffff909216602092830291909101909101526004810154855160ff9091169086908590811061142157634e487b7160e01b600052603260045260246000fd5b911515602092830291909101909101525081905061143e81615727565b9150506111d9565b50509295509295509295565b3360009081526005602052604090208054600160801b900460ff166114895760405162461bcd60e51b81526004016109a590615458565b60018101546001600160601b03166114b35760405162461bcd60e51b81526004016109a590615434565b6001810154600160601b900460ff16156114df5760405162461bcd60e51b81526004016109a590615366565b6001810154600d546001600160601b03909116906001600160801b031681111561151b5760405162461bcd60e51b81526004016109a5906152ba565b60018201805460ff60601b1916600160601b179055600d805482919060009061154e9084906001600160801b0316615660565b92506101000a8154816001600160801b0302191690836001600160801b0316021790555080600c60108282829054906101000a90046001600160801b03166115969190615586565b92506101000a8154816001600160801b0302191690836001600160801b031602179055506000336001600160a01b0316826001600160801b03166040516115dc90614d85565b60006040518083038185875af1925050503d8060008114611619576040519150601f19603f3d011682016040523d82523d6000602084013e61161e565b606091505b505090508061163f5760405162461bcd60e51b81526004016109a59061521a565b336001600160a01b03167fb8db46dbfc50be2ba9133722b4b4a81bd9c137374a52afdcbbee314c4951d0df836040516116789190615480565b60405180910390a2505050565b600083838360405160200161169c93929190614d45565b6040516020818303038152906040528051906020012090509392505050565b600c546001600160801b031681565b60035481565b60035490565b6060600680548060200260200160405190810160405280929190818152602001828054801561172e57602002820191906000526020600020905b81546001600160a01b03168152600190910190602001808311611710575b5050505050905090565b600080611746888888611685565b6000818152602081905260409020600301549091506001600160401b0316156117815760405162461bcd60e51b81526004016109a5906151ca565b6040518060e0016040528089898080601f01602080910402602001604051908101604052809392919081815260200183838082843760009201919091525050509082525063ffffffff881660208083019190915260408051601f8901839004830281018301825288815292019190889088908190840183828082843760009201829052509385525050506001600160401b03421660208084019190915263ffffffff8716604080850191909152336060850152600160809094019390935284825281815291902082518051919261185d928492909101906146c5565b5060208281015160018301805463ffffffff191663ffffffff9092169190911790556040830151805161189692600285019201906146c5565b506060820151600382018054608085015160a086015167ffffffffffffffff199092166001600160401b039094169390931763ffffffff60401b1916600160401b63ffffffff94851602176001600160601b0316600160601b6001600160a01b039092169190910217905560c0909201516004909101805460ff1916911515919091179055861660009081526001602081815260408084208054938401815584528184209092018490558151601f880182900482028101820190925286825261197a919088908890819084018382808284376000920191909152506140d192505050565b6004805460018101825560009182527f8a35acfbc15ff81a39ae7d344fd709f28e8600b4aa8c65c6b64bfe7fe36bd19b0184905560038054929350906119bf83615727565b91905055506000801b6002826040516119d89190614d69565b9081526020016040518091039020541480611a3b5750611a3b86868080601f016020809104026020016040519081016040528093929190818152602001838380828437600092018290525060405190935083925060029150610c89908790614d69565b15611a625781600282604051611a519190614d69565b908152604051908190036020019020555b817fb645d59feae056b1a6968287214e2edf7e156e00315ce7988bf3534e31a434798a8a8a8a8a604051610d96959493929190615088565b600e546001600160a01b03163314611ac45760405162461bcd60e51b81526004016109a5906153bc565b60003411611ae45760405162461bcd60e51b81526004016109a590615129565b63ffffffff81166000908152600b60205260408120805490913491839190611b169084906001600160801b0316615586565b92506101000a8154816001600160801b0302191690836001600160801b0316021790555034600d60008282829054906101000a90046001600160801b0316611b5e9190615586565b92506101000a8154816001600160801b0302191690836001600160801b031602179055508163ffffffff167fd82ac81331c459c26231cff798032bbb1af6dbbdfee9fd8f77ff9a619ecc515334604051611bb89190615480565b60405180910390a25050565b600e546000906001600160a01b0316331480611be85750336001600160a01b038716145b611c045760405162461bcd60e51b81526004016109a590615458565b6001600160a01b038616600090815260056020526040902054600160801b900460ff16611c435760405162461bcd60e51b81526004016109a590615458565b6000611c5060648461561e565b6001600160a01b03881660008181526008602090815260408083205463ffffffff8c8116808652600a85529483902054835160e081018552968752868501959095528251601f8c0185900485028101850184528b81529697509081169593169392908301918a908a9081908401838280828437600092018290525093855250505063ffffffff8089166020808501919091526001600160401b034216604080860191909152888316606086015260809094018390526001600160a01b03808f1684526007825284842088841685528252928490208551815487840151909416600160a01b0263ffffffff60a01b19919095166001600160a01b03199094169390931792909216929092178155918301518051611d7292600185019201906146c5565b50606082015160029091018054608084015160a085015160c0909501511515600160801b0260ff60801b1963ffffffff968716600160601b0263ffffffff60601b196001600160401b03909416640100000000026bffffffffffffffff000000001997891663ffffffff199096169590951796909616939093179190911693909317169190911790556040805160e0810182526001600160a01b038c168152918a166020808401919091528151601f8a01829004820281018201835289815291830191908a908a9081908401838280828437600092018290525093855250505063ffffffff8089166020808501919091526001600160401b034216604080860191909152888316606086015260809094018390528c821683526009815283832086831684528152918390208451815486850151909316600160a01b0263ffffffff60a01b196001600160a01b039092166001600160a01b03199094169390931716919091178155918301518051611eef92600185019201906146c5565b50606082015160029091018054608084015160a085015160c0909501511515600160801b0260ff60801b1963ffffffff968716600160601b0263ffffffff60601b196001600160401b03909416640100000000026bffffffffffffffff000000001997891663ffffffff199096169590951796909616939093179190911693909317169190911790556001600160a01b038a16600090815260086020526040812080549092169190611fa083615742565b82546101009290920a63ffffffff8181021990931691831602179091558981166000908152600a6020526040812080549092169250611fde83615742565b82546101009290920a63ffffffff8181021990931691831602179091556001600160a01b038b166000908152600560205260408120805490935090911690829061202783615742565b91906101000a81548163ffffffff021916908363ffffffff160217905550508363ffffffff168160000160048282829054906101000a90046001600160601b031661207291906155e8565b82546101009290920a6001600160601b0381810219909316919092169190910217905550805467ffffffffffffffff60881b1916600160881b426001600160401b0316021781556040516001600160a01b038b16907fae38a79da09a6853e8bb706b0aa1ae0bebec94d3048c84d2c86ce9996e53e230906120f6908c908890615512565b60405180910390a2509198975050505050505050565b6001600160a01b038116600090815260056020526040902054600160801b900460ff165b919050565b600e546001600160a01b0316331461215f5760405162461bcd60e51b81526004016109a5906153bc565b60005b818110156121b4576121a283838381811061218d57634e487b7160e01b600052603260045260246000fd5b905060200201602081019061072591906147c8565b806121ac81615727565b915050612162565b505050565b60065490565b6005602052600090815260409020805460019091015463ffffffff8216916001600160601b03640100000000820481169260ff600160801b84048116936001600160401b03600160881b9091041692821691600160601b90041686565b6001600160a01b03811660009081526005602052604081208054600160801b900460ff16158061225757506001810154600160601b900460ff165b15612266576000915050612130565b600101546001600160601b031692915050565b600d546001600160801b031681565b600e546001600160a01b031681565b6009602090815260009283526040808420909152908252902080546001820180546001600160a01b03831693600160a01b90930463ffffffff169291906122dd906156ec565b80601f0160208091040260200160405190810160405280929190818152602001828054612309906156ec565b80156123565780601f1061232b57610100808354040283529160200191612356565b820191906000526020600020905b81548152906001019060200180831161233957829003601f168201915b5050506002909301549192505063ffffffff808216916001600160401b0364010000000082041691600160601b8204169060ff600160801b9091041687565b600e546001600160a01b031633146123bf5760405162461bcd60e51b81526004016109a5906153bc565b63ffffffff8082166000908152600a602052604090205416806123f45760405162461bcd60e51b81526004016109a59061540a565b63ffffffff82166000908152600b6020526040902080546001600160801b03166124305760405162461bcd60e51b81526004016109a590615434565b600181015460ff166124545760405162461bcd60e51b81526004016109a590615269565b6000806124618585614354565b91509150600082116124855760405162461bcd60e51b81526004016109a5906151f0565b60008163ffffffff16116124ab5760405162461bcd60e51b81526004016109a590615243565b82546000906124cc906001600160801b03600160801b820481169116615660565b6001600160801b03169050600081116124f75760405162461bcd60e51b81526004016109a59061519c565b6125058686848685896143ea565b505050505050565b600b60205260009081526040902080546001909101546001600160801b0380831692600160801b9004169060ff1683565b600c54600160801b90046001600160801b031681565b600a6020526000908152604090205463ffffffff1681565b60608060608060608060008060005b6103e88163ffffffff1610156125f25763ffffffff8116600090815260016020526040902054156125e05763ffffffff81166000908152600160205260409020546125c690846155b1565b92508163ffffffff168163ffffffff1611156125e0578091505b806125ea81615742565b91505061257b565b50816001600160401b0381111561261957634e487b7160e01b600052604160045260246000fd5b604051908082528060200260200182016040528015612642578160200160208202803683370190505b509750816001600160401b0381111561266b57634e487b7160e01b600052604160045260246000fd5b60405190808252806020026020018201604052801561269e57816020015b60608152602001906001900390816126895790505b509650816001600160401b038111156126c757634e487b7160e01b600052604160045260246000fd5b6040519080825280602002602001820160405280156126f0578160200160208202803683370190505b509550816001600160401b0381111561271957634e487b7160e01b600052604160045260246000fd5b604051908082528060200260200182016040528015612742578160200160208202803683370190505b509450816001600160401b0381111561276b57634e487b7160e01b600052604160045260246000fd5b604051908082528060200260200182016040528015612794578160200160208202803683370190505b509350816001600160401b038111156127bd57634e487b7160e01b600052604160045260246000fd5b6040519080825280602002602001820160405280156127e6578160200160208202803683370190505b5092506000805b8263ffffffff168163ffffffff1611612aea5763ffffffff811660009081526001602090815260408083208054825181850281018501909352808352919290919083018282801561285d57602002820191906000526020600020905b815481526020019060010190808311612849575b5050505050905060005b8151811015612ad557600082828151811061289257634e487b7160e01b600052603260045260246000fd5b6020026020010151905060008060008381526020019081526020016000209050818e87815181106128d357634e487b7160e01b600052603260045260246000fd5b6020908102919091010152805481906128eb906156ec565b80601f0160208091040260200160405190810160405280929190818152602001828054612917906156ec565b80156129645780601f1061293957610100808354040283529160200191612964565b820191906000526020600020905b81548152906001019060200180831161294757829003601f168201915b50505050508d878151811061298957634e487b7160e01b600052603260045260246000fd5b602090810291909101015260018101548c5163ffffffff909116908d90889081106129c457634e487b7160e01b600052603260045260246000fd5b63ffffffff9092166020928302919091019091015260038101548b516001600160401b03909116908c9088908110612a0c57634e487b7160e01b600052603260045260246000fd5b60200260200101906001600160401b031690816001600160401b0316815250508060030160089054906101000a900463ffffffff168a8781518110612a6157634e487b7160e01b600052603260045260246000fd5b63ffffffff909216602092830291909101909101526004810154895160ff909116908a9088908110612aa357634e487b7160e01b600052603260045260246000fd5b9115156020928302919091019091015285612abd81615727565b96505050508080612acd90615727565b915050612867565b50508080612ae290615742565b9150506127ed565b50505050909192939495565b600e546001600160a01b03163314612b205760405162461bcd60e51b81526004016109a5906153bc565b6001600160a01b038116612b465760405162461bcd60e51b81526004016109a59061514f565b6001600160a01b03811660009081526005602052604090208054600160801b900460ff16612bf657805460ff60801b1916600160801b1781556006805460018101825560009182527ff652222313e28459528d920b65115c16c04f3efc82aaedc97be59f3f377c0d3f0180546001600160a01b0385166001600160a01b0319909116811790915560405190917f88e0cfea153c684860265db3d2ffbf1f58244dda3d0d74a25b398dc88c60a75391a25b5050565b60048181548110612c0a57600080fd5b600091825260209091200154905081565b60086020526000908152604090205463ffffffff1681565b805160208183018101805160028252928201919093012091525481565b600d8054349190600090612c6e9084906001600160801b0316615586565b92506101000a8154816001600160801b0302191690836001600160801b03160217905550336001600160a01b03167f1b57d3bd3d546a50dc12b93588d730345097da93682e787dd733da67727d216834604051612ccb9190615480565b60405180910390a2565b63ffffffff811660009081526001602052604081205460609081908390819081908190612d145760405162461bcd60e51b81526004016109a59061538f565b63ffffffff88166000908152600160208190526040822080549091612d3891615688565b81548110612d5657634e487b7160e01b600052603260045260246000fd5b600091825260208083209091015480835290829052604090912060038101546004820154825493945091928492849260028401926001600160401b0382169263ffffffff600160401b840416926001600160a01b03600160601b909104169160ff909116908690612dc6906156ec565b80601f0160208091040260200160405190810160405280929190818152602001828054612df2906156ec565b8015612e3f5780601f10612e1457610100808354040283529160200191612e3f565b820191906000526020600020905b815481529060010190602001808311612e2257829003601f168201915b50505050509550848054612e52906156ec565b80601f0160208091040260200160405190810160405280929190818152602001828054612e7e906156ec565b8015612ecb5780601f10612ea057610100808354040283529160200191612ecb565b820191906000526020600020905b815481529060010190602001808311612eae57829003601f168201915b5050505050945098509850985098509850985098505050919395979092949650565b600e546001600160a01b03163314612f175760405162461bcd60e51b81526004016109a5906153bc565b63ffffffff81166000908152600b6020526040902080546001600160801b0316612f535760405162461bcd60e51b81526004016109a590615178565b600181015460ff1615612f785760405162461bcd60e51b81526004016109a5906153df565b6001818101805460ff19169091179055805460405163ffffffff8416917f49ff85b603ee7ec5353bb49abe876158eb9f39e4f1b8bc47a8d2591b0965c58191611bb8916001600160801b031690615480565b63ffffffff8084166000908152600a6020526040812054606092839283928392908116919088168211156130295763ffffffff8216613009888a6155c9565b63ffffffff161161301a5786613024565b613024888361569f565b61302c565b60005b90508063ffffffff166001600160401b0381111561305a57634e487b7160e01b600052604160045260246000fd5b604051908082528060200260200182016040528015613083578160200160208202803683370190505b5095508063ffffffff166001600160401b038111156130b257634e487b7160e01b600052604160045260246000fd5b6040519080825280602002602001820160405280156130db578160200160208202803683370190505b5094508063ffffffff166001600160401b0381111561310a57634e487b7160e01b600052604160045260246000fd5b604051908082528060200260200182016040528015613133578160200160208202803683370190505b5093508063ffffffff166001600160401b0381111561316257634e487b7160e01b600052604160045260246000fd5b60405190808252806020026020018201604052801561318b578160200160208202803683370190505b50925060005b8163ffffffff168163ffffffff1610156133165763ffffffff8a166000908152600960205260408120816131c5848d6155c9565b63ffffffff9081168252602082019290925260400160002080548a519193506001600160a01b0316918a9190851690811061321057634e487b7160e01b600052603260045260246000fd5b6001600160a01b03909216602092830291909101909101526002810154875163ffffffff91821691899190851690811061325a57634e487b7160e01b600052603260045260246000fd5b63ffffffff928316602091820292909201015260028201548751600160601b90910482169188919085169081106132a157634e487b7160e01b600052603260045260246000fd5b602002602001019063ffffffff16908163ffffffff16815250508060020160109054906101000a900460ff16858363ffffffff16815181106132f357634e487b7160e01b600052603260045260246000fd5b91151560209283029190910190910152508061330e81615742565b915050613191565b50505093509350935093565b600e546001600160a01b0316331461334c5760405162461bcd60e51b81526004016109a5906153bc565b6001600160a01b038116600090815260056020526040902054600160801b900460ff1661338b5760405162461bcd60e51b81526004016109a590615458565b6001600160a01b0381166000908152600560205260408120805460ff60801b19169055600654905b818110156134ec57826001600160a01b0316600682815481106133e657634e487b7160e01b600052603260045260246000fd5b6000918252602090912001546001600160a01b031614156134da57600661340e600184615688565b8154811061342c57634e487b7160e01b600052603260045260246000fd5b600091825260209091200154600680546001600160a01b03909216918390811061346657634e487b7160e01b600052603260045260246000fd5b9060005260206000200160006101000a8154816001600160a01b0302191690836001600160a01b0316021790555060068054806134b357634e487b7160e01b600052603160045260246000fd5b600082815260209020810160001990810180546001600160a01b03191690550190556134ec565b806134e481615727565b9150506133b3565b506040516001600160a01b038316907f316e376af8ad3c9ff24948b0031984714a4056dae154b476db7180bc173be88390600090a25050565b63ffffffff811660009081526001602090815260409182902080548351818402810184019094528084526060939283018282801561358257602002820191906000526020600020905b81548152602001906001019080831161356e575b50505050509050919050565b60006060600060606000806000600289896040516135ad929190614d35565b908152604051908190036020019020549050806135dc5760405162461bcd60e51b81526004016109a590615337565b60008181526020819052604090206001810154600382015482548492849263ffffffff9182169260028501926001600160401b03831692600160401b900416908590613627906156ec565b80601f0160208091040260200160405190810160405280929190818152602001828054613653906156ec565b80156136a05780601f10613675576101008083540402835291602001916136a0565b820191906000526020600020905b81548152906001019060200180831161368357829003601f168201915b505050505094508280546136b3906156ec565b80601f01602080910402602001604051908101604052809291908181526020018280546136df906156ec565b801561372c5780601f106137015761010080835404028352916020019161372c565b820191906000526020600020905b81548152906001019060200180831161370f57829003601f168201915b5050505050925097509750975097509750975050509295509295509295565b600e546001600160a01b031633146137755760405162461bcd60e51b81526004016109a5906153bc565b600d546001600160801b0390811690821611156137a45760405162461bcd60e51b81526004016109a5906152ba565b600d80548291906000906137c29084906001600160801b0316615660565b92506101000a8154816001600160801b0302191690836001600160801b031602179055506000600e60009054906101000a90046001600160a01b03166001600160a01b0316826001600160801b031660405161381d90614d85565b60006040518083038185875af1925050503d806000811461385a576040519150601f19603f3d011682016040523d82523d6000602084013e61385f565b606091505b50509050806138805760405162461bcd60e51b81526004016109a59061521a565b600e546040516001600160a01b03909116907f25e7fff862e101f58872b71f8a3acf5460b020d1f27e6b47bb38e366b8cf167490611bb8908590615480565b6000602081905290815260409020805481906138da906156ec565b80601f0160208091040260200160405190810160405280929190818152602001828054613906906156ec565b80156139535780601f1061392857610100808354040283529160200191613953565b820191906000526020600020905b81548152906001019060200180831161393657829003601f168201915b5050506001840154600285018054949563ffffffff90921694919350915061397a906156ec565b80601f01602080910402602001604051908101604052809291908181526020018280546139a6906156ec565b80156139f35780601f106139c8576101008083540402835291602001916139f3565b820191906000526020600020905b8154815290600101906020018083116139d657829003601f168201915b50505050600383015460049093015491926001600160401b03811692600160401b820463ffffffff169250600160601b9091046001600160a01b03169060ff1687565b6001600160a01b038316600090815260086020526040812054606091829182918291829163ffffffff918216918916821115613a9d5763ffffffff8216613a7d898b6155c9565b63ffffffff1611613a8e5787613a98565b613a98898361569f565b613aa0565b60005b90508063ffffffff166001600160401b03811115613ace57634e487b7160e01b600052604160045260246000fd5b604051908082528060200260200182016040528015613af7578160200160208202803683370190505b5096508063ffffffff166001600160401b03811115613b2657634e487b7160e01b600052604160045260246000fd5b604051908082528060200260200182016040528015613b4f578160200160208202803683370190505b5095508063ffffffff166001600160401b03811115613b7e57634e487b7160e01b600052604160045260246000fd5b604051908082528060200260200182016040528015613ba7578160200160208202803683370190505b5094508063ffffffff166001600160401b03811115613bd657634e487b7160e01b600052604160045260246000fd5b604051908082528060200260200182016040528015613bff578160200160208202803683370190505b5093508063ffffffff166001600160401b03811115613c2e57634e487b7160e01b600052604160045260246000fd5b604051908082528060200260200182016040528015613c57578160200160208202803683370190505b50925060005b8163ffffffff168163ffffffff161015613e45576001600160a01b038b16600090815260076020526040812081613c94848e6155c9565b63ffffffff1663ffffffff16815260200190815260200160002090508060000160149054906101000a900463ffffffff16898363ffffffff1681518110613ceb57634e487b7160e01b600052603260045260246000fd5b63ffffffff928316602091820292909201015260028201548951908216918a91908516908110613d2b57634e487b7160e01b600052603260045260246000fd5b63ffffffff928316602091820292909201015260028201548851600160601b9091048216918991908516908110613d7257634e487b7160e01b600052603260045260246000fd5b602002602001019063ffffffff16908163ffffffff16815250508060020160049054906101000a90046001600160401b0316868363ffffffff1681518110613dca57634e487b7160e01b600052603260045260246000fd5b60200260200101906001600160401b031690816001600160401b0316815250508060020160109054906101000a900460ff16858363ffffffff1681518110613e2257634e487b7160e01b600052603260045260246000fd5b911515602092830291909101909101525080613e3d81615742565b915050613c5d565b505050939792965093509350565b6000818152602081905260408120600381015460609291839183918291829182916001600160401b0316613e995760405162461bcd60e51b81526004016109a59061530e565b6001810154600382015460048301548354849363ffffffff9081169360028601936001600160401b03821693600160401b830490931692600160601b9092046001600160a01b03169160ff909116908790613ef3906156ec565b80601f0160208091040260200160405190810160405280929190818152602001828054613f1f906156ec565b8015613f6c5780601f10613f4157610100808354040283529160200191613f6c565b820191906000526020600020905b815481529060010190602001808311613f4f57829003601f168201915b50505050509650848054613f7f906156ec565b80601f0160208091040260200160405190810160405280929190818152602001828054613fab906156ec565b8015613ff85780601f10613fcd57610100808354040283529160200191613ff8565b820191906000526020600020905b815481529060010190602001808311613fdb57829003601f168201915b50505050509450975097509750975097509750975050919395979092949650565b600e546001600160a01b031633146140435760405162461bcd60e51b81526004016109a5906153bc565b6001600160a01b0381166140695760405162461bcd60e51b81526004016109a5906152e8565b600e80546001600160a01b0319166001600160a01b0392909216919091179055565b6007602090815260009283526040808420909152908252902080546001820180546001600160a01b03831693600160a01b90930463ffffffff169291906122dd906156ec565b606081600080805b835181101561414d5783818151811061410257634e487b7160e01b600052603260045260246000fd5b6020910101516001600160f81b031916601760f91b141561413b578261412781615727565b935050809150826002141561413b5761414d565b8061414581615727565b9150506140d9565b50600282101561416257849350505050612130565b6000816001600160401b0381111561418a57634e487b7160e01b600052604160045260246000fd5b6040519080825280601f01601f1916602001820160405280156141b4576020820181803683370190505b50905060005b82811015614236578481815181106141e257634e487b7160e01b600052603260045260246000fd5b602001015160f81c60f81b82828151811061420d57634e487b7160e01b600052603260045260246000fd5b60200101906001600160f81b031916908160001a9053508061422e81615727565b9150506141ba565b5095945050505050565b60008282825b8251811080156142565750815181105b156143465781818151811061427b57634e487b7160e01b600052603260045260246000fd5b602001015160f81c60f81b6001600160f81b0319168382815181106142b057634e487b7160e01b600052603260045260246000fd5b01602001516001600160f81b03191614614334578181815181106142e457634e487b7160e01b600052603260045260246000fd5b602001015160f81c60f81b6001600160f81b03191683828151811061431957634e487b7160e01b600052603260045260246000fd5b01602001516001600160f81b03191611935061434e92505050565b8061433e81615727565b915050614246565b505190511190505b92915050565b600080805b8363ffffffff168163ffffffff1610156143e15763ffffffff85811660009081526009602090815260408083209385168352929052206002810154600160801b900460ff166143ce5760028101546143be90600160601b900463ffffffff16856155b1565b9350826143ca81615742565b9350505b50806143d981615742565b915050614359565b505b9250929050565b600a60005b8563ffffffff168163ffffffff1610801561441557508663ffffffff168163ffffffff16105b1561446a57600063ffffffff831661442d838961569f565b63ffffffff161061443e5782614448565b614448828861569f565b9050614458898983898989614474565b61446281836155c9565b9150506143ef565b5050505050505050565b6000805b8663ffffffff168163ffffffff1610801561449e57508563ffffffff168263ffffffff16105b1561446a5763ffffffff88811660009081526009602090815260408083209385168352929052206002810154600160801b900460ff166144f3576144e5818a888888614506565b826144ef81615742565b9350505b50806144fe81615742565b915050614478565b60028501546000908490614528908590600160601b900463ffffffff16615641565b614532919061560a565b600287018054600160801b60ff60801b19909116811790915583549192508291849160109161456c918591046001600160801b0316615586565b92506101000a8154816001600160801b0302191690836001600160801b0316021790555080600d60008282829054906101000a90046001600160801b03166145b49190615660565b92506101000a8154816001600160801b0302191690836001600160801b0316021790555060008660000160009054906101000a90046001600160a01b03166001600160a01b0316826001600160801b031660405161461190614d85565b60006040518083038185875af1925050503d806000811461464e576040519150601f19603f3d011682016040523d82523d6000602084013e614653565b606091505b50509050806146745760405162461bcd60e51b81526004016109a59061521a565b86546040516001600160a01b03909116907f1da3cdb3d2ecc17857aac9bab9b20919f0190eec4c73a10055217080f7a81def906146b49085908a906154e2565b60405180910390a250505050505050565b8280546146d1906156ec565b90600052602060002090601f0160209004810192826146f35760008555614739565b82601f1061470c57805160ff1916838001178555614739565b82800160010185558215614739579182015b8281111561473957825182559160200191906001019061471e565b50614745929150614749565b5090565b5b80821115614745576000815560010161474a565b80356001600160a01b038116811461213057600080fd5b60008083601f840112614786578182fd5b5081356001600160401b0381111561479c578182fd5b6020830191508360208285010111156143e357600080fd5b803563ffffffff8116811461213057600080fd5b6000602082840312156147d9578081fd5b6147e28261475e565b9392505050565b600080604083850312156147fb578081fd5b6148048361475e565b9150614812602084016147b4565b90509250929050565b600080600080600060808688031215614832578081fd5b61483b8661475e565b9450614849602087016147b4565b935060408601356001600160401b03811115614863578182fd5b61486f88828901614775565b90945092506148829050606087016147b4565b90509295509295909350565b6000806000606084860312156148a2578283fd5b6148ab8461475e565b92506148b9602085016147b4565b91506148c7604085016147b4565b90509250925092565b600080602083850312156148e2578182fd5b82356001600160401b03808211156148f8578384fd5b818501915085601f83011261490b578384fd5b813581811115614919578485fd5b866020808302850101111561492c578485fd5b60209290920196919550909350505050565b60006020828403121561494f578081fd5b5035919050565b60008060208385031215614968578182fd5b82356001600160401b0381111561497d578283fd5b61498985828601614775565b90969095509350505050565b6000806000604084860312156149a9578283fd5b83356001600160401b038111156149be578384fd5b6149ca86828701614775565b90945092506148c79050602085016147b4565b600080600080600080608087890312156149f5578081fd5b86356001600160401b0380821115614a0b578283fd5b614a178a838b01614775565b9098509650869150614a2b60208a016147b4565b95506040890135915080821115614a40578283fd5b50614a4d89828a01614775565b9094509250614a609050606088016147b4565b90509295509295509295565b60006020808385031215614a7e578182fd5b82356001600160401b0380821115614a94578384fd5b818501915085601f830112614aa7578384fd5b813581811115614ab957614ab9615792565b604051601f8201601f1916810185018381118282101715614adc57614adc615792565b6040528181528382018501881015614af2578586fd5b818585018683013790810190930193909352509392505050565b600060208284031215614b1d578081fd5b81356001600160801b03811681146147e2578182fd5b60008060408385031215614b45578182fd5b50508035926020909101359150565b600060208284031215614b65578081fd5b6147e2826147b4565b60008060408385031215614b80578182fd5b614b89836147b4565b946020939093013593505050565b60008060408385031215614ba9578182fd5b614804836147b4565b600080600060608486031215614bc6578081fd5b6148ab846147b4565b6000815180845260208085019450808401835b83811015614c075781516001600160a01b031687529582019590820190600101614be2565b509495945050505050565b6000815180845260208085019450808401835b83811015614c07578151151587529582019590820190600101614c25565b6000815180845260208085019450808401835b83811015614c0757815187529582019590820190600101614c56565b6000815180845260208085019450808401835b83811015614c0757815163ffffffff1687529582019590820190600101614c85565b6000815180845260208085019450808401835b83811015614c075781516001600160401b031687529582019590820190600101614cba565b60008284528282602086013780602084860101526020601f19601f85011685010190509392505050565b60008151808452614d218160208601602086016156bc565b601f01601f19169290920160200192915050565b6000828483379101908152919050565b6000838583375060e09190911b6001600160e01b0319169101908152600401919050565b60008251614d7b8184602087016156bc565b9190910192915050565b90565b6001600160a01b0391909116815260200190565b600060018060a01b038916825263ffffffff808916602084015260e06040840152614dca60e0840189614d09565b96811660608401526001600160401b03959095166080830152509190921660a082015290151560c0909101529392505050565b6000602082526147e26020830184614bcf565b600060808252614e236080830187614bcf565b8281036020840152614e358187614c72565b90508281036040840152614e498186614c72565b90508281036060840152614e5d8185614c12565b979650505050505050565b6000602082526147e26020830184614c43565b600060c08252614e8e60c0830189614c43565b602083820381850152818951808452828401915082838202850101838c01865b83811015614edc57601f19878403018552614eca838351614d09565b94860194925090850190600101614eae565b50508681036040880152614ef0818c614c72565b9450505050508281036060840152614f088187614ca7565b90508281036080840152614f1c8186614c72565b905082810360a0840152614f308185614c12565b9998505050505050505050565b600060a08252614f5060a0830188614c72565b8281036020840152614f628188614c72565b90508281036040840152614f768187614c72565b90508281036060840152614f8a8186614ca7565b90508281036080840152614f9e8185614c12565b98975050505050505050565b901515815260200190565b90815260200190565b600088825260e06020830152614fd760e0830189614d09565b8281036040840152614fe98189614d09565b6001600160401b03979097166060840152505063ffffffff9390931660808401526001600160a01b039190911660a0830152151560c0909101529392505050565b600087825260c0602083015261504360c0830188614d09565b63ffffffff808816604085015283820360608501526150628288614d09565b92506001600160401b038616608085015280851660a08501525050979650505050505050565b60006060825261509c606083018789614cdf565b63ffffffff861660208401528281036040840152614f9e818587614cdf565b600060e082526150ce60e083018a614d09565b63ffffffff808a16602085015283820360408501526150ed828a614d09565b6001600160401b03989098166060850152959095166080830152506001600160a01b039290921660a0830152151560c090910152509392505050565b6020808252600c908201526b5a65726f2066756e64696e6760a01b604082015260600190565b6020808252600f908201526e496e76616c6964206164647265737360881b604082015260600190565b6020808252600a9082015269115b5c1d1e481c1bdbdb60b21b604082015260600190565b6020808252601490820152734e6f20617661696c61626c65207265776172647360601b604082015260600190565b6020808252600c908201526b4d6f64656c2065786973747360a01b604082015260600190565b60208082526010908201526f5a65726f20746f74616c2073636f726560801b604082015260600190565b6020808252600f908201526e151c985b9cd9995c8819985a5b1959608a1b604082015260600190565b6020808252600c908201526b105b1b081c995dd85c99195960a21b604082015260600190565b6020808252600d908201526c139bdd08199a5b985b1a5e9959609a1b604082015260600190565b60208082526010908201526f416c726561647920696e61637469766560801b604082015260600190565b602080825260149082015273496e73756666696369656e742062616c616e636560601b604082015260600190565b6020808252600c908201526b5a65726f206164647265737360a01b604082015260600190565b6020808252600f908201526e135bd9195b081b9bdd08195e1a5cdd608a1b604082015260600190565b60208082526015908201527427379036b7b232b639903337b9103b32b939b4b7b760591b604082015260600190565b6020808252600f908201526e105b1c9958591e4818db185a5b5959608a1b604082015260600190565b602080825260139082015272139bc81b5bd9195b1cc8199bdc881c9bdd5b99606a1b604082015260600190565b6020808252600990820152682737ba1037bbb732b960b91b604082015260600190565b602080825260119082015270105b1c9958591e48199a5b985b1a5e9959607a1b604082015260600190565b60208082526010908201526f4e6f20636f6e747269627574696f6e7360801b604082015260600190565b6020808252600a90820152694e6f207265776172647360b01b604082015260600190565b6020808252600e908201526d139bdd08185d5d1a1bdc9a5e995960921b604082015260600190565b6001600160801b0391909116815260200190565b6001600160801b039384168152919092166020820152901515604082015260600190565b6001600160801b039485168152928416602084015292166040820152901515606082015260800190565b6001600160801b0392909216825263ffffffff16602082015260400190565b63ffffffff91909116815260200190565b63ffffffff92831681529116602082015260400190565b63ffffffff9690961686526001600160601b03948516602087015292151560408601526001600160401b039190911660608501529091166080830152151560a082015260c00190565b6001600160601b0391909116815260200190565b60006001600160801b038083168185168083038211156155a8576155a8615766565b01949350505050565b600082198211156155c4576155c4615766565b500190565b600063ffffffff8083168185168083038211156155a8576155a8615766565b60006001600160601b038083168185168083038211156155a8576155a8615766565b6000826156195761561961577c565b500490565b600063ffffffff808416806156355761563561577c565b92169190910492915050565b600081600019048311821515161561565b5761565b615766565b500290565b60006001600160801b038381169083168181101561568057615680615766565b039392505050565b60008282101561569a5761569a615766565b500390565b600063ffffffff8381169083168181101561568057615680615766565b60005b838110156156d75781810151838201526020016156bf565b838111156156e6576000848401525b50505050565b60028104600182168061570057607f821691505b6020821081141561572157634e487b7160e01b600052602260045260246000fd5b50919050565b600060001982141561573b5761573b615766565b5060010190565b600063ffffffff8083168181141561575c5761575c615766565b6001019392505050565b634e487b7160e01b600052601160045260246000fd5b634e487b7160e01b600052601260045260246000fd5b634e487b7160e01b600052604160045260246000fdfea2646970667358221220c401af0d830a9af47579136ada0f3c9b6e24a7a6aa2d32c5df6e9d36292e93f764736f6c63430008000033",
  "immutableReferences": {},
  "source": "// SPDX-License-Identifier: MIT\npragma solidity ^0.8.0;\n\ncontract Federation {\n    // Gas-optimized Model structure with smaller uint types\n    struct Model {\n        string ipfsHash;\n        uint32 round;\n        string version;\n        uint64 timestamp;\n        uint32 participatingClients;\n        address publisher;\n        bool isActive;\n    }\n    \n    // Gas-optimized Client contribution structure\n    struct ClientContribution {\n        uint32 contributionCount;\n        uint96 totalScore;\n        bool isAuthorized;\n        uint64 lastContributionTimestamp;\n        uint96 rewardsEarned;\n        bool rewardsClaimed;\n    }\n    \n    // Gas-optimized Contribution record structure\n    struct ContributionRecord {\n        address clientAddress;\n        uint32 round;\n        string ipfsHash;\n        uint32 accuracy;\n        uint64 timestamp;\n        uint32 score;\n        bool rewarded;\n    }\n    \n    // Gas-optimized Round reward pool structure\n    struct RoundRewardPool {\n        uint128 totalAmount;\n        uint128 allocatedAmount;\n        bool isFinalized;\n    }\n    \n    // Main storage for models\n    mapping(bytes32 => Model) public models;\n    \n    // Model IDs by round\n    mapping(uint32 => bytes32[]) public modelsByRound;\n    \n    // Latest model ID for each version prefix\n    mapping(string => bytes32) public latestVersions;\n\n    // Track total number of models\n    uint256 public totalModelCount;\n\n    // Track all model IDs in an array for easier access\n    bytes32[] public allModelIds;\n    \n    // Client registry\n    mapping(address => ClientContribution) public clientRegistry;\n    \n    // Authorized client addresses\n    address[] public authorizedClients;\n    \n    // Contribution records by client address - using mapping instead of array\n    mapping(address => mapping(uint32 => ContributionRecord)) public clientContributions;\n    mapping(address => uint32) public clientContributionCount;\n    \n    // Contributions by round - using mapping instead of array for gas efficiency\n    mapping(uint32 => mapping(uint32 => ContributionRecord)) public roundContributions;\n    mapping(uint32 => uint32) public roundContributionCount;\n    \n    // Reward pools by round\n    mapping(uint32 => RoundRewardPool) public roundRewardPools;\n    \n    // Total rewards allocated\n    uint128 public totalRewardsAllocated;\n    \n    // Total rewards claimed\n    uint128 public totalRewardsClaimed;\n    \n    // Current contract balance\n    uint128 public contractBalance;\n    \n    // Events\n    event ModelRegistered(bytes32 indexed modelId, string ipfsHash, uint32 round, string version);\n    event ModelUpdated(bytes32 indexed modelId, string ipfsHash, uint32 round, string version);\n    event ModelDeactivated(bytes32 indexed modelId);\n    event ClientAuthorized(address indexed clientAddress);\n    event ClientDeauthorized(address indexed clientAddress);\n    event ContributionRecorded(address indexed clientAddress, uint32 round, uint32 score);\n    event RewardAllocated(address indexed clientAddress, uint128 amount, uint32 round);\n    event RewardClaimed(address indexed clientAddress, uint128 amount);\n    event RewardPoolFunded(uint32 indexed round, uint128 amount);\n    event RewardPoolFinalized(uint32 indexed round, uint128 totalAmount);\n    event ContractFunded(address indexed from, uint128 amount);\n    event EmergencyWithdrawal(address indexed to, uint128 amount);\n    \n    // Owner of the contract\n    address public owner;\n    \n    constructor() {\n        owner = msg.sender;\n    }\n    \n    // Modifier to restrict certain functions to the owner\n    modifier onlyOwner() {\n        require(msg.sender == owner, \"Not owner\");\n        _;\n    }\n    \n    // Receive function to allow the contract to receive ETH\n    receive() external payable {\n        contractBalance += uint128(msg.value);\n        emit ContractFunded(msg.sender, uint128(msg.value));\n    }\n    \n    // Fallback function\n    fallback() external payable {\n        contractBalance += uint128(msg.value);\n        emit ContractFunded(msg.sender, uint128(msg.value));\n    }\n    \n    // Function to fund the contract\n    function fundContract() external payable {\n        contractBalance += uint128(msg.value);\n        emit ContractFunded(msg.sender, uint128(msg.value));\n    }\n    \n    // Function to fund a specific round's reward pool\n    function fundRoundRewardPool(uint32 round) external payable onlyOwner {\n        require(msg.value > 0, \"Zero funding\");\n        \n        RoundRewardPool storage pool = roundRewardPools[round];\n        pool.totalAmount += uint128(msg.value);\n        contractBalance += uint128(msg.value);\n        \n        emit RewardPoolFunded(round, uint128(msg.value));\n    }\n    \n    // Finalize a round's reward pool (prevents additional funding)\n    function finalizeRoundRewardPool(uint32 round) external onlyOwner {\n        RoundRewardPool storage pool = roundRewardPools[round];\n        require(pool.totalAmount > 0, \"Empty pool\");\n        require(!pool.isFinalized, \"Already finalized\");\n        \n        pool.isFinalized = true;\n        \n        emit RewardPoolFinalized(round, pool.totalAmount);\n    }\n    \n    // Generate a unique model ID from the IPFS hash and round\n    function generateModelId(string calldata ipfsHash, uint32 round) public pure returns (bytes32) {\n        return keccak256(abi.encodePacked(ipfsHash, round));\n    }\n    \n    //////////////////////////////////////////////////////////\n    ///////////   MODEL MANAGEMENT FUNCTIONS  ////////////////\n    //////////////////////////////////////////////////////////\n    \n    // Register a new model - using calldata instead of memory for parameters\n    function registerModel(\n        string calldata ipfsHash, \n        uint32 round, \n        string calldata version,\n        uint32 participatingClients\n    ) external returns (bytes32) {\n        // Generate model ID\n        bytes32 modelId = generateModelId(ipfsHash, round);\n        \n        // Ensure it doesn't already exist\n        require(models[modelId].timestamp == 0, \"Model exists\");\n        \n        // Store the model\n        models[modelId] = Model({\n            ipfsHash: ipfsHash,\n            round: round,\n            version: version,\n            timestamp: uint64(block.timestamp),\n            participatingClients: participatingClients,\n            publisher: msg.sender,\n            isActive: true\n        });\n        \n        // Add to round mapping\n        modelsByRound[round].push(modelId);\n        \n        // Update latest version\n        string memory versionPrefix = getVersionPrefix(version);\n        \n        allModelIds.push(modelId);\n        totalModelCount++;\n\n        // If there's no latest version for this prefix or this one is newer\n        if (latestVersions[versionPrefix] == bytes32(0) || \n            compareVersions(version, models[latestVersions[versionPrefix]].version)) {\n            latestVersions[versionPrefix] = modelId;\n        }\n        \n        // Emit event\n        emit ModelRegistered(modelId, ipfsHash, round, version);\n        \n        return modelId;\n    }\n    \n    // Update an existing model by round\n    function updateModelByRound(\n        string calldata ipfsHash, \n        uint32 round, \n        string calldata version,\n        uint32 participatingClients\n    ) external onlyOwner returns (bytes32) {\n        // Check if any model exists for this round\n        require(modelsByRound[round].length > 0, \"No models for round\");\n        \n        // Generate new model ID\n        bytes32 modelId = generateModelId(ipfsHash, round);\n        \n        // Check if this specific model already exists\n        if (models[modelId].timestamp > 0) {\n            // Model already exists\n            return modelId;\n        }\n        \n        // Store the model\n        models[modelId] = Model({\n            ipfsHash: ipfsHash,\n            round: round,\n            version: version,\n            timestamp: uint64(block.timestamp),\n            participatingClients: participatingClients,\n            publisher: msg.sender,\n            isActive: true\n        });\n        \n        // Add to round mapping\n        modelsByRound[round].push(modelId);\n        \n        // Update latest version\n        string memory versionPrefix = getVersionPrefix(version);\n        \n        // If there's no latest version for this prefix or this one is newer\n        if (latestVersions[versionPrefix] == bytes32(0) || \n            compareVersions(version, models[latestVersions[versionPrefix]].version)) {\n            latestVersions[versionPrefix] = modelId;\n        }\n        \n        // Emit event\n        emit ModelUpdated(modelId, ipfsHash, round, version);\n        \n        return modelId;\n    }\n\n    // Get the latest model for a specific version prefix\n    function getLatestModel(string calldata versionPrefix) external view returns (\n        bytes32 modelId,\n        string memory ipfsHash,\n        uint32 round,\n        string memory version,\n        uint64 timestamp,\n        uint32 participatingClients\n    ) {\n        bytes32 id = latestVersions[versionPrefix];\n        require(id != bytes32(0), \"No models for version\");\n        \n        Model storage model = models[id];\n        return (\n            id,\n            model.ipfsHash,\n            model.round,\n            model.version,\n            model.timestamp,\n            model.participatingClients\n        );\n    }\n    \n    // Get all models for a specific round\n    function getModelsByRound(uint32 round) external view returns (bytes32[] memory) {\n        return modelsByRound[round];\n    }\n    \n    // Get the most recent model for a specific round\n    function getLatestModelByRound(uint32 round) external view returns (\n        bytes32 modelId,\n        string memory ipfsHash,\n        string memory version,\n        uint64 timestamp,\n        uint32 participatingClients,\n        address publisher,\n        bool isActive\n    ) {\n        require(modelsByRound[round].length > 0, \"No models for round\");\n        \n        // Get the last model in the array (most recently added)\n        bytes32 id = modelsByRound[round][modelsByRound[round].length - 1];\n        Model storage model = models[id];\n        \n        return (\n            id,\n            model.ipfsHash,\n            model.version,\n            model.timestamp,\n            model.participatingClients,\n            model.publisher,\n            model.isActive\n        );\n    }\n    \n    // Get model details\n    function getModelDetails(bytes32 modelId) external view returns (\n        string memory ipfsHash,\n        uint32 round,\n        string memory version,\n        uint64 timestamp,\n        uint32 participatingClients,\n        address publisher,\n        bool isActive\n    ) {\n        Model storage model = models[modelId];\n        require(model.timestamp > 0, \"Model not exist\");\n        \n        return (\n            model.ipfsHash,\n            model.round,\n            model.version,\n            model.timestamp,\n            model.participatingClients,\n            model.publisher,\n            model.isActive\n        );\n    }\n\n    // Get models with pagination\n    // This function is optimized for gas by using arrays instead of mappings\n    function getModels(uint256 offset, uint256 limit) external view returns (\n        bytes32[] memory modelIds,\n        string[] memory ipfsHashes,\n        uint32[] memory rounds,\n        uint64[] memory timestamps,\n        uint32[] memory participatingClients,\n        bool[] memory isActive\n    ) {\n        // Calculate actual number of records to return\n        uint256 count = (offset >= totalModelCount) ? 0 : (\n            ((offset + limit) > totalModelCount) ? (totalModelCount - offset) : limit\n        );\n        \n        // Initialize arrays\n        modelIds = new bytes32[](count);\n        ipfsHashes = new string[](count);\n        rounds = new uint32[](count);\n        timestamps = new uint64[](count);\n        participatingClients = new uint32[](count);\n        isActive = new bool[](count);\n        \n        // Fill arrays with model data\n        for (uint256 i = 0; i < count; i++) {\n            bytes32 modelId = allModelIds[offset + i];\n            Model storage model = models[modelId];\n            \n            modelIds[i] = modelId;\n            ipfsHashes[i] = model.ipfsHash;\n            rounds[i] = model.round;\n            timestamps[i] = model.timestamp;\n            participatingClients[i] = model.participatingClients;\n            isActive[i] = model.isActive;\n        }\n        \n        return (modelIds, ipfsHashes, rounds, timestamps, participatingClients, isActive);\n    }\n\n    // Get total model count\n    function getModelCount() external view returns (uint256) {\n        return totalModelCount;\n    }\n    // Function to get all models for visualization\n    function getAllModels() external view returns (\n        bytes32[] memory modelIds,\n        string[] memory ipfsHashes,\n        uint32[] memory rounds,\n        uint64[] memory timestamps,\n        uint32[] memory participatingClients,\n        bool[] memory isActive\n    ) {\n        // First, determine how many total models we have by counting all rounds\n        uint256 totalModels = 0;\n        uint32 maxRound = 0;\n        \n        // Find the maximum round number\n        for (uint32 i = 0; i < 1000; i++) { // Assume maximum 1000 rounds for safety\n            if (modelsByRound[i].length > 0) {\n                totalModels += modelsByRound[i].length;\n                if (i > maxRound) maxRound = i;\n            }\n        }\n        \n        // Initialize arrays with the correct size\n        modelIds = new bytes32[](totalModels);\n        ipfsHashes = new string[](totalModels);\n        rounds = new uint32[](totalModels);\n        timestamps = new uint64[](totalModels);\n        participatingClients = new uint32[](totalModels);\n        isActive = new bool[](totalModels);\n        \n        // Fill arrays with model data\n        uint256 index = 0;\n        \n        // Iterate through all rounds\n        for (uint32 round = 0; round <= maxRound; round++) {\n            bytes32[] memory roundModels = modelsByRound[round];\n            \n            for (uint256 j = 0; j < roundModels.length; j++) {\n                bytes32 modelId = roundModels[j];\n                Model storage model = models[modelId];\n                \n                modelIds[index] = modelId;\n                ipfsHashes[index] = model.ipfsHash;\n                rounds[index] = model.round;\n                timestamps[index] = model.timestamp;\n                participatingClients[index] = model.participatingClients;\n                isActive[index] = model.isActive;\n                \n                index++;\n            }\n        }\n        \n        return (modelIds, ipfsHashes, rounds, timestamps, participatingClients, isActive);\n    }\n    \n    // Get version prefix (e.g., \"1.0\" from \"1.0.3\")\n    function getVersionPrefix(string memory version) internal pure returns (string memory) {\n        // This is a simplified implementation that assumes format major.minor.patch\n        bytes memory versionBytes = bytes(version);\n        uint dotCount = 0;\n        uint lastDotPos = 0;\n        \n        for (uint i = 0; i < versionBytes.length; i++) {\n            if (versionBytes[i] == '.') {\n                dotCount++;\n                lastDotPos = i;\n                if (dotCount == 2) break;\n            }\n        }\n        \n        if (dotCount < 2) return version; // No patch number found\n        \n        // Create prefix (major.minor)\n        bytes memory prefix = new bytes(lastDotPos);\n        for (uint i = 0; i < lastDotPos; i++) {\n            prefix[i] = versionBytes[i];\n        }\n        \n        return string(prefix);\n    }\n    \n    // Compare versions (returns true if v1 is newer than v2)\n    function compareVersions(string memory v1, string memory v2) internal pure returns (bool) {\n        // Simple string comparison - assumes properly formatted semantic versions\n        bytes memory b1 = bytes(v1);\n        bytes memory b2 = bytes(v2);\n        \n        for (uint i = 0; i < b1.length && i < b2.length; i++) {\n            if (b1[i] != b2[i]) {\n                return b1[i] > b2[i];\n            }\n        }\n        \n        return b1.length > b2.length;\n    }\n    \n    // Deactivate a model (e.g., if it's found to be problematic)\n    function deactivateModel(bytes32 modelId) external onlyOwner {\n        require(models[modelId].timestamp > 0, \"Model not exist\");\n        require(models[modelId].isActive, \"Already inactive\");\n        \n        models[modelId].isActive = false;\n        \n        emit ModelDeactivated(modelId);\n    }\n    \n    //////////////////////////////////////////////////////////\n    ///////////   CLIENT MANAGEMENT FUNCTIONS  ///////////////\n    //////////////////////////////////////////////////////////\n    \n    // Authorize a client to participate in federated learning\n    function authorizeClient(address clientAddress) public onlyOwner {\n        require(clientAddress != address(0), \"Invalid address\");\n        \n        ClientContribution storage client = clientRegistry[clientAddress];\n        \n        if (!client.isAuthorized) {\n            client.isAuthorized = true;\n            authorizedClients.push(clientAddress);\n            \n            emit ClientAuthorized(clientAddress);\n        }\n    }\n    \n    // Authorize multiple clients at once\n    function authorizeClients(address[] calldata clientAddresses) external onlyOwner {\n        for (uint i = 0; i < clientAddresses.length; i++) {\n            authorizeClient(clientAddresses[i]);\n        }\n    }\n    \n    // Deauthorize a client - more gas efficient implementation\n    function deauthorizeClient(address clientAddress) external onlyOwner {\n        require(clientRegistry[clientAddress].isAuthorized, \"Not authorized\");\n        \n        clientRegistry[clientAddress].isAuthorized = false;\n        \n        // Find and remove from authorized clients array using a more gas efficient approach\n        uint256 length = authorizedClients.length;\n        for (uint i = 0; i < length; i++) {\n            if (authorizedClients[i] == clientAddress) {\n                // Swap with the last element and pop\n                authorizedClients[i] = authorizedClients[length - 1];\n                authorizedClients.pop();\n                break;\n            }\n        }\n        \n        emit ClientDeauthorized(clientAddress);\n    }\n    \n    // Check if a client is authorized\n    function isClientAuthorized(address clientAddress) external view returns (bool) {\n        return clientRegistry[clientAddress].isAuthorized;\n    }\n    \n    // Get all authorized clients\n    function getAllAuthorizedClients() external view returns (address[] memory) {\n        return authorizedClients;\n    }\n    \n    //////////////////////////////////////////////////////////\n    ///////////   CONTRIBUTION MANAGEMENT  //////////////////\n    //////////////////////////////////////////////////////////\n    \n    // Record a client's contribution - more gas efficient\n    function recordContribution(\n        address clientAddress,\n        uint32 round,\n        string calldata ipfsHash,\n        uint32 accuracy // Accuracy multiplied by 10000 (e.g., 95.67% = 9567)\n    ) external returns (uint32) {\n        // Only owner or the client itself can record a contribution\n        require(msg.sender == owner || msg.sender == clientAddress, \"Not authorized\");\n        \n        // Check if client is authorized\n        require(clientRegistry[clientAddress].isAuthorized, \"Not authorized\");\n        \n        // Calculate contribution score (simplified for gas)\n        uint32 score = accuracy / 100;\n        \n        // Create contribution record using mappings instead of arrays\n        uint32 clientIndex = clientContributionCount[clientAddress];\n        uint32 roundIndex = roundContributionCount[round];\n        \n        // Store in client contributions mapping\n        clientContributions[clientAddress][clientIndex] = ContributionRecord({\n            clientAddress: clientAddress,\n            round: round,\n            ipfsHash: ipfsHash,\n            accuracy: accuracy,\n            timestamp: uint64(block.timestamp),\n            score: score,\n            rewarded: false\n        });\n        \n        // Store in round contributions mapping\n        roundContributions[round][roundIndex] = ContributionRecord({\n            clientAddress: clientAddress,\n            round: round,\n            ipfsHash: ipfsHash,\n            accuracy: accuracy,\n            timestamp: uint64(block.timestamp),\n            score: score,\n            rewarded: false\n        });\n        \n        // Increment counters\n        clientContributionCount[clientAddress]++;\n        roundContributionCount[round]++;\n        \n        // Update client metrics\n        ClientContribution storage client = clientRegistry[clientAddress];\n        client.contributionCount++;\n        client.totalScore += score;\n        client.lastContributionTimestamp = uint64(block.timestamp);\n        \n        emit ContributionRecorded(clientAddress, round, score);\n        \n        return score;\n    }\n    \n    // Get client contribution details\n    function getClientContribution(address clientAddress) external view returns (\n        uint32 contributionCount,\n        uint96 totalScore,\n        bool isAuthorized,\n        uint64 lastContributionTimestamp,\n        uint96 rewardsEarned,\n        bool rewardsClaimed\n    ) {\n        ClientContribution storage client = clientRegistry[clientAddress];\n        return (\n            client.contributionCount,\n            client.totalScore,\n            client.isAuthorized,\n            client.lastContributionTimestamp,\n            client.rewardsEarned,\n            client.rewardsClaimed\n        );\n    }\n    \n    // Get client contribution records - with pagination for gas efficiency\n    function getClientContributionRecords(\n        address clientAddress, \n        uint32 offset, \n        uint32 limit\n    ) external view returns (\n        uint32[] memory rounds,\n        uint32[] memory accuracies,\n        uint32[] memory scores,\n        uint64[] memory timestamps,\n        bool[] memory rewarded\n    ) {\n        uint32 total = clientContributionCount[clientAddress];\n        \n        // Calculate actual number of records to return\n        uint32 count = (offset >= total) ? 0 : (\n            ((offset + limit) > total) ? (total - offset) : limit\n        );\n        \n        // Initialize arrays\n        rounds = new uint32[](count);\n        accuracies = new uint32[](count);\n        scores = new uint32[](count);\n        timestamps = new uint64[](count);\n        rewarded = new bool[](count);\n        \n        // Populate arrays\n        for (uint32 i = 0; i < count; i++) {\n            ContributionRecord storage record = clientContributions[clientAddress][offset + i];\n            rounds[i] = record.round;\n            accuracies[i] = record.accuracy;\n            scores[i] = record.score;\n            timestamps[i] = record.timestamp;\n            rewarded[i] = record.rewarded;\n        }\n        \n        return (rounds, accuracies, scores, timestamps, rewarded);\n    }\n    \n    // Get contributions for a specific round - with pagination\n    function getRoundContributions(\n        uint32 round,\n        uint32 offset,\n        uint32 limit\n    ) external view returns (\n        address[] memory clients,\n        uint32[] memory accuracies,\n        uint32[] memory scores,\n        bool[] memory rewarded\n    ) {\n        uint32 total = roundContributionCount[round];\n        \n        // Calculate actual number of records to return\n        uint32 count = (offset >= total) ? 0 : (\n            ((offset + limit) > total) ? (total - offset) : limit\n        );\n        \n        // Initialize arrays\n        clients = new address[](count);\n        accuracies = new uint32[](count);\n        scores = new uint32[](count);\n        rewarded = new bool[](count);\n        \n        // Populate arrays\n        for (uint32 i = 0; i < count; i++) {\n            ContributionRecord storage record = roundContributions[round][offset + i];\n            clients[i] = record.clientAddress;\n            accuracies[i] = record.accuracy;\n            scores[i] = record.score;\n            rewarded[i] = record.rewarded;\n        }\n        \n        return (clients, accuracies, scores, rewarded);\n    }\n    \n    //////////////////////////////////////////////////////////\n    ///////////   REWARD MANAGEMENT FUNCTIONS  ///////////////\n    //////////////////////////////////////////////////////////\n    \n    // Batch allocate rewards to clients - more gas efficient\n    function allocateRewardsForRound(uint32 round) external onlyOwner {\n        uint32 count = roundContributionCount[round];\n        require(count > 0, \"No contributions\");\n        \n        RoundRewardPool storage pool = roundRewardPools[round];\n        require(pool.totalAmount > 0, \"No rewards\");\n        require(pool.isFinalized, \"Not finalized\");\n        \n        // Calculate in a separate function\n        (uint256 totalScore, uint32 unrewarded) = calculateRoundScores(round, count);\n        \n        require(totalScore > 0, \"Zero total score\");\n        require(unrewarded > 0, \"All rewarded\");\n        \n        uint256 availableRewards = pool.totalAmount - pool.allocatedAmount;\n        require(availableRewards > 0, \"No available rewards\");\n        \n        // Process batches using a separate function\n        processRewardBatches(round, count, unrewarded, totalScore, availableRewards, pool);\n    }\n\n    // Extract calculations to reduce variable count\n    function calculateRoundScores(uint32 round, uint32 count) internal view returns (uint256 totalScore, uint32 unrewarded) {\n        totalScore = 0;\n        unrewarded = 0;\n        \n        for (uint32 i = 0; i < count; i++) {\n            ContributionRecord storage contribution = roundContributions[round][i];\n            if (!contribution.rewarded) {\n                totalScore += contribution.score;\n                unrewarded++;\n            }\n        }\n        \n        return (totalScore, unrewarded);\n    }\n\n    // Process rewards in a separate function\n    function processRewardBatches(\n        uint32 round, \n        uint32 count, \n        uint32 unrewarded, \n        uint256 totalScore, \n        uint256 availableRewards,\n        RoundRewardPool storage pool\n    ) internal {\n        uint32 batchSize = 10;\n        uint32 processedCount = 0;\n        \n        while (processedCount < unrewarded && processedCount < count) {\n            uint32 currentBatch = (unrewarded - processedCount) < batchSize ? \n                                (unrewarded - processedCount) : batchSize;\n            \n            processRewardBatch(round, count, currentBatch, totalScore, availableRewards, pool);\n            processedCount += currentBatch;\n        }\n    }\n\n    // Process a single batch\n    function processRewardBatch(\n        uint32 round,\n        uint32 count,\n        uint32 batchSize,\n        uint256 totalScore,\n        uint256 availableRewards,\n        RoundRewardPool storage pool\n    ) internal {\n        uint32 batchProcessed = 0;\n        \n        for (uint32 i = 0; i < count && batchProcessed < batchSize; i++) {\n            ContributionRecord storage contribution = roundContributions[round][i];\n            \n            if (!contribution.rewarded) {\n                processContributionReward(contribution, round, totalScore, availableRewards, pool);\n                batchProcessed++;\n            }\n        }\n    }\n\n    // Process a single contribution's reward\n    function processContributionReward(\n        ContributionRecord storage contribution,\n        uint32 round,\n        uint256 totalScore,\n        uint256 availableRewards,\n        RoundRewardPool storage pool\n    ) internal {\n        // Calculate reward amount\n        uint128 rewardAmount = uint128((uint256(contribution.score) * availableRewards) / totalScore);\n        \n        // Update contribution record\n        contribution.rewarded = true;\n        \n        // Update reward pool\n        pool.allocatedAmount += rewardAmount;\n        contractBalance -= rewardAmount;\n        \n        // Transfer ETH directly to the client\n        (bool success, ) = payable(contribution.clientAddress).call{value: rewardAmount}(\"\");\n        require(success, \"Transfer failed\");\n        \n        // Emit event with fewer variables in scope\n        emit RewardAllocated(contribution.clientAddress, rewardAmount, round);\n    }\n    \n    // Allow client to claim rewards (transfers actual ETH)\n    function claimRewards() external {\n        ClientContribution storage client = clientRegistry[msg.sender];\n        require(client.isAuthorized, \"Not authorized\");\n        require(client.rewardsEarned > 0, \"No rewards\");\n        require(!client.rewardsClaimed, \"Already claimed\");\n        \n        uint128 amount = client.rewardsEarned;\n        require(amount <= contractBalance, \"Insufficient balance\");\n        \n        // Mark rewards as claimed before transfer to prevent reentrancy\n        client.rewardsClaimed = true;\n        contractBalance -= amount;\n        totalRewardsClaimed += amount;\n        \n        // Transfer ETH to the client\n        (bool success, ) = payable(msg.sender).call{value: amount}(\"\");\n        require(success, \"Transfer failed\");\n        \n        emit RewardClaimed(msg.sender, amount);\n    }\n    \n    // Get available rewards for a client\n    function getAvailableRewards(address clientAddress) external view returns (uint96) {\n        ClientContribution storage client = clientRegistry[clientAddress];\n        if (!client.isAuthorized || client.rewardsClaimed) {\n            return 0;\n        }\n        return client.rewardsEarned;\n    }\n    \n    // Emergency withdrawal function for the owner\n    function emergencyWithdraw(uint128 amount) external onlyOwner {\n        require(amount <= contractBalance, \"Insufficient balance\");\n        \n        contractBalance -= amount;\n        \n        // Transfer ETH to the owner\n        (bool success, ) = payable(owner).call{value: amount}(\"\");\n        require(success, \"Transfer failed\");\n        \n        emit EmergencyWithdrawal(owner, amount);\n    }\n    \n    // Get round reward pool details\n    function getRoundRewardPool(uint32 round) external view returns (\n        uint128 totalAmount,\n        uint128 allocatedAmount,\n        uint128 remainingAmount,\n        bool isFinalized\n    ) {\n        RoundRewardPool storage pool = roundRewardPools[round];\n        return (\n            pool.totalAmount,\n            pool.allocatedAmount,\n            pool.totalAmount - pool.allocatedAmount,\n            pool.isFinalized\n        );\n    }\n    \n    // Update contract owner\n    function transferOwnership(address newOwner) external onlyOwner {\n        require(newOwner != address(0), \"Zero address\");\n        owner = newOwner;\n    }\n    \n    // Get total number of authorized clients\n    function getAuthorizedClientCount() external view returns (uint256) {\n        return authorizedClients.length;\n    }\n}",
  "sourcePath": "/home/cam/v2-flw/blockchain/contracts/Federation.sol",
  "compiler": {
    "name": "solc",
    "version": "0.8.0+commit.c7dfd78e.Emscripten.clang"
  },
  "schemaVersion": "3.4.16",
  "updatedAt": "2025-05-11T09:30:37.671Z",
  "networkType": "ethereum",
  "devdoc": {
    "kind": "dev",
    "methods": {},
    "version": 1
  },
  "userdoc": {
    "kind": "user",
    "methods": {},
    "version": 1
  }
}